:100000000C942A000C943C000C943C000C943C0092
:100010000C943C000C943C000C943C000C943C0070
:100020000C943C000C943C000C94A9060C947606AD
:100030000C943C000C943C000C943C000C943C0050
:100040000C943C000C943C000C943C000C943C0040
:100050000C943C0011241FBECFE5D8E0DEBFCDBF1D
:1000600010E0A0E6B0E001C01D92A737B107E1F7AC
:100070000E945F000C94A0070C940000DF93CF93C4
:10008000CDB7DEB780E060E00E94C604CF91DF917B
:100090000895DF93CF93CDB7DEB780E061E00E9493
:1000A000C604CF91DF910895DF93CF93CDB7DEB72C
:1000B00080E062E00E94C604CF91DF910895DF9353
:1000C000CF93CDB7DEB780E060E041E00E949400BE
:1000D00080E061E041E00E94940080E062E041E065
:1000E0000E9494000E94E3042EE330E080E068EE7A
:1000F00073E040E050E00E9403052EE330E081E031
:1001000060ED77E040E050E00E9403052EE330E030
:1001100082E068E873E140E050E00E9403050E943D
:10012000D6040E948804FFCFDF93CF93CDB7DEB70C
:100130002D970FB6F894DEBF0FBECDBF89836A83BB
:100140004B838981843008F009C18A81883008F0A6
:1001500005C18B81823008F001C18981282F30E0F0
:100160003D872C878C859D858130910509F44FC092
:100170002C853D85223031052CF48C859D8500979A
:1001800071F0ECC02C853D852230310509F477C033
:100190008C859D858330910509F4A9C0DFC08B81D2
:1001A000282F30E03B872A878A859B85009731F08E
:1001B0002A853B8521303105B1F0D0C0AAE3B0E0FB
:1001C000EAE3F0E08081482F8A81282F30E081E047
:1001D00090E0022E02C0880F991F0A94E2F78095E2
:1001E00084238C93BBC0AAE3B0E0EAE3F0E0808113
:1001F000482F8A81282F30E081E090E0022E02C053
:10020000880F991F0A94E2F7842B8C93A7C08B81E7
:10021000282F30E03987288788859985009731F025
:100220002885398521303105B1F098C0A7E3B0E0C9
:10023000E7E3F0E08081482F8A81282F30E081E0D9
:1002400090E0022E02C0880F991F0A94E2F7809571
:1002500084238C9383C0A7E3B0E0E7E3F0E08081E0
:10026000482F8A81282F30E081E090E0022E02C0E2
:10027000880F991F0A94E2F7842B8C936FC08B81AF
:10028000282F30E03F832E838E819F81009731F0AD
:100290002E813F8121303105B1F060C0A4E3B0E090
:1002A000E4E3F0E08081482F8A81282F30E081E06C
:1002B00090E0022E02C0880F991F0A94E2F7809501
:1002C00084238C934BC0A4E3B0E0E4E3F0E08081AE
:1002D000482F8A81282F30E081E090E0022E02C072
:1002E000880F991F0A94E2F7842B8C9337C08B8177
:1002F000282F30E03D832C838C819D81009731F045
:100300002C813D8121303105B1F028C0A1E3B0E05E
:10031000E1E3F0E08081482F8A81282F30E081E0FE
:1003200090E0022E02C0880F991F0A94E2F7809590
:1003300084238C9313C0A1E3B0E0E1E3F0E080817B
:10034000482F8A81282F30E081E090E0022E02C001
:10035000880F991F0A94E2F7842B8C932D960FB681
:10036000F894DEBF0FBECDBFCF91DF910895DF932C
:10037000CF93CDB7DEB72D970FB6F894DEBF0FBE83
:10038000CDBF89836A834B838981843008F009C19A
:100390008A81883008F005C18B81823008F001C164
:1003A0008981282F30E03D872C878C859D85813081
:1003B000910509F44FC02C853D85223031052CF480
:1003C0008C859D85009771F0ECC02C853D85223091
:1003D000310509F477C08C859D858330910509F43A
:1003E000A9C0DFC08B81282F30E03B872A878A8510
:1003F0009B85009731F02A853B8521303105B1F08E
:10040000D0C0ABE3B0E0EBE3F0E08081482F8A811D
:10041000282F30E081E090E0022E02C0880F991F63
:100420000A94E2F7809584238C93BBC0ABE3B0E0E1
:10043000EBE3F0E08081482F8A81282F30E081E0D3
:1004400090E0022E02C0880F991F0A94E2F7842BD5
:100450008C93A7C08B81282F30E039872887888527
:100460009985009731F02885398521303105B1F023
:1004700098C0A8E3B0E0E8E3F0E08081482F8A81EB
:10048000282F30E081E090E0022E02C0880F991FF3
:100490000A94E2F7809584238C9383C0A8E3B0E0AC
:1004A000E8E3F0E08081482F8A81282F30E081E066
:1004B00090E0022E02C0880F991F0A94E2F7842B65
:1004C0008C936FC08B81282F30E03F832E838E81E9
:1004D0009F81009731F02E813F8121303105B1F0AD
:1004E00060C0A5E3B0E0E5E3F0E08081482F8A81B9
:1004F000282F30E081E090E0022E02C0880F991F83
:100500000A94E2F7809584238C934BC0A5E3B0E076
:10051000E5E3F0E08081482F8A81282F30E081E0F8
:1005200090E0022E02C0880F991F0A94E2F7842BF4
:100530008C9337C08B81282F30E03D832C838C81B6
:100540009D81009731F02C813D8121303105B1F042
:1005500028C0A2E3B0E0E2E3F0E08081482F8A8186
:10056000282F30E081E090E0022E02C0880F991F12
:100570000A94E2F7809584238C9313C0A2E3B0E041
:10058000E2E3F0E08081482F8A81282F30E081E08B
:1005900090E0022E02C0880F991F0A94E2F7842B84
:1005A0008C932D960FB6F894DEBF0FBECDBFCF91C2
:1005B000DF910895DF93CF9300D000D00F92CDB795
:1005C000DEB78A836B838A81843008F06BC08B81AD
:1005D000883008F067C08A81282F30E03D832C8363
:1005E0004C815D814130510541F18C819D8182308A
:1005F000910534F42C813D812115310561F052C003
:100600004C815D814230510551F18C819D81833057
:100610009105B9F147C0E9E3F0E08081282F30E08F
:100620008B81882F90E0A90102C0559547958A9546
:10063000E2F7CA018170898335C0E6E3F0E080818A
:10064000282F30E08B81882F90E0A90102C05595BA
:1006500047958A95E2F7CA018170898323C0E3E355
:10066000F0E08081282F30E08B81882F90E0A90175
:1006700002C0559547958A95E2F7CA018170898332
:1006800011C0E0E3F0E08081282F30E08B81882FDB
:1006900090E0A90102C0559547958A95E2F7CA01F5
:1006A0008170898389810F900F900F900F900F9028
:1006B000CF91DF910895DF93CF9300D000D0CDB7D5
:1006C000DEB789836A838981843008F072C08A81A9
:1006D000883008F06EC08981282F30E03C832B835E
:1006E0008B819C818130910549F12B813C812230A5
:1006F00031052CF48B819C81009761F05AC02B81CD
:100700003C812230310571F18B819C8183309105D0
:10071000E9F14FC0ABE3B0E0EBE3F0E08081482FBC
:100720008A81282F30E081E090E0022E02C0880FFD
:10073000991F0A94E2F784278C933BC0A8E3B0E0AA
:10074000E8E3F0E08081482F8A81282F30E081E0C3
:1007500090E0022E02C0880F991F0A94E2F78427C6
:100760008C9327C0A5E3B0E0E5E3F0E08081482F5B
:100770008A81282F30E081E090E0022E02C0880FAD
:10078000991F0A94E2F784278C9313C0A2E3B0E088
:10079000E2E3F0E08081482F8A81282F30E081E079
:1007A00090E0022E02C0880F991F0A94E2F7842776
:1007B0008C930F900F900F900F90CF91DF91089531
:1007C000DF93CF9300D000D0CDB7DEB789836A83A3
:1007D0008981843090F58981282F30E03C832B83F8
:1007E0008B819C8181309105D1F02B813C8122301D
:1007F00031052CF48B819C81009761F01EC02B8108
:100800003C812230310581F08B819C8183309105C0
:1008100081F013C0EAE3F0E08A8180830EC0E7E351
:10082000F0E08A81808309C0E4E3F0E08A8180837C
:1008300004C0E1E3F0E08A8180830F900F900F9075
:100840000F90CF91DF910895DF93CF9300D000D028
:10085000CDB7DEB789836A838981843090F5898139
:10086000282F30E03C832B838B819C818130910544
:10087000D1F02B813C81223031052CF48B819C817D
:10088000009761F01EC02B813C812230310581F040
:100890008B819C818330910581F013C0EBE3F0E004
:1008A0008A8180830EC0E8E3F0E08A81808309C0FA
:1008B000E5E3F0E08A81808304C0E2E3F0E08A812E
:1008C00080830F900F900F900F90CF91DF9108953C
:1008D000DF93CF93CDB7DEB7EAE3F0E087E0808324
:1008E000E7E3F0E01082E4E3F0E01082E1E3F0E01F
:1008F0001082EBE3F0E01082E8E3F0E01082E5E341
:10090000F0E01082E2E3F0E01082CF91DF910895F1
:10091000DF93CF93CDB7DEB7AFE5B0E0EFE5F0E022
:10092000808180688C93CF91DF910895DF93CF937E
:10093000CDB7DEB7AFE5B0E0EFE5F0E080818F77CF
:100940008C93CF91DF910895DF93CF9300D0CDB7F3
:10095000DEB789836A8389816A8141E00E94B70199
:100960000F900F90CF91DF910895DF93CF9300D038
:10097000CDB7DEB789836A8389816A8140E00E94AE
:10098000B7010F900F90CF91DF910895DF93CF9330
:1009900000D0CDB7DEB789836A8389816A810E94DE
:1009A0005B030F900F90CF91DF910895DF93CF936A
:1009B000CDB7DEB788E595E00E9460060E94EB05A2
:1009C000CF91DF910895DF93CF930F92CDB7DEB72C
:1009D000198212C08981282F30E0C901880F991F20
:1009E000820F931F880F991FFC01E759FF4F118257
:1009F000108289818F5F89838981833058F30F90BA
:100A0000CF91DF910895DF93CF93CDB7DEB72797CE
:100A10000FB6F894DEBF0FBECDBF89837B836A8398
:100A20005D834C833F832E8389818330C0F58E8123
:100A30009F810097A1F18981282F30E0C901880F9B
:100A4000991F820F931F880F991FFC01EB59FF4FCD
:100A50008C819D81918380838981282F30E0C90119
:100A6000880F991F820F931F0196880F991FFC0111
:100A7000EB59FF4F8A819B81918380838981282F45
:100A800030E0C901880F991F820F931F880F991FAB
:100A9000FC01E759FF4F8E819F81918380832796C8
:100AA0000FB6F894DEBF0FBECDBFCF91DF91089592
:100AB000DF93CF930F92CDB7DEB7809160008F5F49
:100AC0008093600080916000853009F080C01092B2
:100AD0006000198278C08981282F30E0C901880F11
:100AE000991F820F931F880F991FFC01EB59FF4F2D
:100AF00080819181009709F045C08981282F30E0DD
:100B0000C901880F991F820F931F880F991FFC013D
:100B1000E759FF4F80819181009789F08981282FC3
:100B200030E0C901880F991F820F931F880F991F0A
:100B3000FC01E759FF4F0190F081E02D0995898173
:100B4000482F50E08981282F30E0C901880F991F74
:100B5000820F931F0196880F991FFC01EB59FF4FDD
:100B6000808191819C0121503040CA01880F991FDA
:100B7000840F951F880F991FFC01EB59FF4F31839C
:100B800020831EC08981282F30E0C901880F991F5A
:100B9000820F931F880F991FFC01EB59FF4F808133
:100BA0009181AC0141505040C901880F991F820FBB
:100BB000931F880F991FFC01EB59FF4F518340830E
:100BC00089818F5F89838981833008F484CF0F9076
:100BD000CF91DF910895DF93CF93CDB7DEB7A3E533
:100BE000B0E0E3E5F0E0808188608C93A3E5B0E0BD
:100BF000E3E5F0E080818F7B8C93A9E5B0E0E9E547
:100C0000F0E0808182608C93A9E5B0E0E9E5F0E056
:100C100080818E7F8C93ECE5F0E087EC8083A3E508
:100C2000B0E0E3E5F0E08081887F8C93A3E5B0E05D
:100C3000E3E5F0E0808182608C93CF91DF910895AD
:100C4000DF93CF930F92CDB7DEB78983E2E5F0E073
:100C5000898180830F90CF91DF910895DF93CF93A7
:100C60000F92CDB7DEB78983ECE5F0E08981808310
:100C70000F90CF91DF910895DF93CF93CDB7DEB77B
:100C8000A3E5B0E0E3E5F0E08081887F8C93CF912D
:100C9000DF910895DF93CF9300D0CDB7DEB79A836D
:100CA000898389819A81009731F089819A81909313
:100CB0006200809361000F900F90CF91DF910895B3
:100CC000DF93CF9300D0CDB7DEB79A838983898134
:100CD0009A81009731F089819A8190936400809382
:100CE00063000F900F90CF91DF9108951F920F92A4
:100CF0000FB60F9211242F933F934F935F936F93EF
:100D00007F938F939F93AF93BF93EF93FF93DF9363
:100D1000CF93CDB7DEB780916100909162000097CC
:100D200029F0E0916100F09162000995CF91DF9187
:100D3000FF91EF91BF91AF919F918F917F916F91B3
:100D40005F914F913F912F910F900FBE0F901F9089
:100D500018951F920F920FB60F9211242F933F9365
:100D60004F935F936F937F938F939F93AF93BF93B3
:100D7000EF93FF93DF93CF93CDB7DEB780916300FE
:100D800090916400009729F0E0916300F091640075
:100D90000995CF91DF91FF91EF91BF91AF919F9115
:100DA0008F917F916F915F914F913F912F910F9014
:100DB0000FBE0F901F901895DF93CF93CDB7DEB77E
:100DC000AFE4B0E0EFE4F0E080818E7F8C93AFE49D
:100DD000B0E0EFE4F0E0808182608C93AEE4B0E0BC
:100DE000EEE4F0E0808188608C93AEE4B0E0EEE465
:100DF000F0E0808180618C93AFE4B0E0EFE4F0E05C
:100E000080818F7B8C93AFE4B0E0EFE4F0E08081F1
:100E100080688C93E6E4F0E08FE19EE49183808328
:100E2000EAE4F0E08CED95E091838083AEE4B0E0FD
:100E3000EEE4F0E080818B7F8C93AEE4B0E0EEE4F2
:100E4000F0E0808182608C93AEE4B0E0EEE4F0E00C
:100E500080818E7F8C93CF91DF910895DF93CF9324
:100E600000D0CDB7DEB79A838983EAE4F0E08981C8
:100E70009A81918380830F900F90CF91DF91089595
:100E8000DF93CF93CDB7DEB7AEE4B0E0EEE4F0E0B1
:100E900080818B7F8C93AEE4B0E0EEE4F0E0808163
:100EA00082608C93AEE4B0E0EEE4F0E080818E7F6F
:100EB0008C93CF91DF910895DF93CF9300D0CDB77E
:100EC000DEB79A838983ECE4F0E089819A8191838B
:100ED00080830F900F90CF91DF910895DF93CF9390
:100EE000CDB7DEB7ECE4F0E080819181CF91DF9166
:100EF0000895DF93CF930F92CDB7DEB78983E1E4F6
:100F0000F0E01082A1E4B0E0E1E4F0E090818981BA
:100F1000892B88608C930F90CF91DF910895DF9398
:100F2000CF93CDB7DEB7A1E4B0E0E1E4F0E080819B
:100F300088618C93E1E4F0E01082CF91DF91089515
:040F4000F894FFCF53
:00000001FF
