:100000000C942A000C9447000C9447000C94470071
:100010000C9447000C9447000C9447000C94AC16C9
:100020000C9447000C9447000C9447000C94470034
:100030000C9447000C9447000C9447000C94470024
:100040000C9447000C9447000C9447000C94470014
:100050000C94470011241FBECFE5D8E0DEBFCDBF12
:1000600010E0A0E6B0E0E8E6F5E402C005900D92ED
:10007000AA37B107D9F716E0AAE7B0E001C01D9290
:10008000A73FB107E1F70E94510E0C94B2220C94E5
:100090000000EF92FF920F931F937B018C0120E0F1
:1000A00030E040E05FE40E94490388238CF0C801FF
:1000B000B70120E030E040E05FE40E94C1010E940F
:1000C000A9039B01AC01205030404040504806C07D
:1000D000C801B7010E94A9039B01AC01B901CA0183
:1000E0001F910F91FF90EF900895A0E0B0E0EBE733
:1000F000F0E00C945C22DC012B01FA019C9192301F
:1001000008F439C1EB018881823008F433C194309E
:1001100069F4843009F02FC111969C91119789815F
:10012000981709F428C1AFE6B0E025C1843009F47E
:1001300021C18230A9F4923009F01DC19A01AD01AC
:1001400088E0EA010990AE01E90109929E0181501F
:10015000C1F7E201898111969C918923818308C1AD
:10016000923009F407C112962D903C901397EB0141
:100170008A819B811496AD90BD90CD90DC901797AD
:10018000EC80FD800E811F819101281B390BB90184
:1001900037FF04C066277727621B730B6032710537
:1001A0000CF061C0121613066CF537014801062EDB
:1001B00004C096948794779467940A94D2F721E0C8
:1001C00030E040E050E004C0220F331F441F551FB1
:1001D0006A95D2F721503040404050402E213F21B7
:1001E00040235123211531054105510521F021E01E
:1001F00030E040E050E079018A01E628F72808293C
:1002000019293CC0232BD1F1260E371E350146019A
:10021000062E04C096948794779467940A94D2F734
:1002200021E030E040E050E004C0220F331F441FC3
:10023000551F6A95D2F721503040404050402A2146
:100240003B214C215D21211531054105510521F04E
:1002500021E030E040E050E059016A01A628B728CB
:10026000C828D9280BC0821593052CF01C01AA249C
:10027000BB24650103C0EE24FF24870111969C91E5
:10028000D20111968C91981709F445C0992339F041
:10029000A80197012A193B094C095D0906C0A6016E
:1002A00095012E193F09400B510B57FD08C01182D3
:1002B0003382228224833583468357831DC081E0A5
:1002C00081833382228288279927DC01821B930B4A
:1002D000A40BB50B84839583A683B7830DC0220F2F
:1002E000331F441F551F24833583468357838281E0
:1002F000938101979383828324813581468157813D
:10030000DA01C9010197A109B1098F5F9F4FAF4F72
:10031000BF4328F30BC0918333822282EA0CFB1C7B
:100320000C1D1D1DE482F5820683178383E0808304
:10033000248135814681578157FF1AC0C901AA27F8
:1003400097FDA095BA2F81709070A070B0705695EF
:10035000479537952795822B932BA42BB52B848318
:100360009583A683B7838281938101969383828349
:10037000DF0101C0D201CD01CDB7DEB7E2E10C94BF
:100380007822A0E2B0E0E7ECF1E00C946822698307
:100390007A838B839C832D833E834F835887E9E048
:1003A000EE2EF12CEC0EFD1ECE010196B7010E943F
:1003B000D2048E010F5E1F4FCE010596B8010E9438
:1003C000D2048A8991E089278A8BC701B801AE01DE
:1003D000475E5F4F0E9475000E94FD03A096E6E015
:1003E0000C948422A0E2B0E0E8EFF1E00C946822E3
:1003F00069837A838B839C832D833E834F835887C5
:10040000F9E0EF2EF12CEC0EFD1ECE010196B701A6
:100410000E94D2048E010F5E1F4FCE010596B801D7
:100420000E94D204C701B801AE01475E5F4F0E942F
:1004300075000E94FD03A096E6E00C948422A0E2E1
:10044000B0E0E5E2F2E00C945C2269837A838B836E
:100450009C832D833E834F835887CE010196BE0136
:10046000675F7F4F0E94D204CE010596BE016F5E8A
:100470007F4F0E94D2049985923088F0898982301A
:10048000C8F0943019F4823051F404C0843029F457
:10049000923081F48FE690E0C6C0923049F420E0BB
:1004A0009A858A89981321E02A87CE010996BBC0D4
:1004B000823049F420E09A858A89981321E02A8BBA
:1004C000CE014196B0C02D843E844F8458886D88FB
:1004D0007E888F88988CEE24FF248701AA24BB2471
:1004E000650140E050E060E070E0E0E0F0E0C10174
:1004F00081709070892BE9F0E60CF71C081D191D1E
:100500009A01AB012A0D3B1D4C1D5D1D80E090E062
:10051000A0E0B0E0E614F7040805190520F481E036
:1005200090E0A0E0B0E0BA01A901480F591F6A1F8E
:100530007B1FAA0CBB1CCC1CDD1C97FE08C081E0F5
:1005400090E0A0E0B0E0A82AB92ACA2ADB2A3196B6
:10055000E032F10549F0660C771C881C991C569412
:10056000479437942794C3CFFA85EA892B893C892D
:100570008B859C85280F391F2E5F3F4F17C0CA01FE
:1005800081709070892B61F016950795F794E79428
:1005900080E090E0A0E0B0E8E82AF92A0A2B1B2BC3
:1005A00076956795579547952F5F3F4F77FDE7CF36
:1005B0000CC0440F551F661F771F17FD4160EE0CDE
:1005C000FF1C001F111F21503040403090E05907A0
:1005D00090E0690790E4790760F32B8F3C8FDB0193
:1005E000CA018F779070A070B07080349105A1051A
:1005F000B10561F447FD0AC0E114F10401051105DC
:1006000029F0405C5F4F6F4F7F4F40781A8EFE1786
:1006100011F081E08A8F4D8F5E8F6F8F78A383E01A
:10062000898FCE0149960E94FD03A096E2E10C94C9
:100630007822A8E1B0E0EFE1F3E00C94682269834E
:100640007A838B839C832D833E834F83588789E0F5
:10065000E82EF12CEC0EFD1ECE010196B7010E9492
:10066000D2048E010F5E1F4FCE010596B8010E9485
:10067000D2048985823040F08989823028F0C70110
:10068000B8010E944A0501C08FEF6896E6E00C941D
:100690008422A8E1B0E0EFE4F3E00C9468226983DF
:1006A0007A838B839C832D833E834F83588789E095
:1006B000E82EF12CEC0EFD1ECE010196B7010E9432
:1006C000D2048E010F5E1F4FCE010596B8010E9425
:1006D000D2048985823040F08989823028F0C701B0
:1006E000B8010E944A0501C08FEF6896E6E00C94BD
:1006F0008422A8E1B0E0EFE7F3E00C94682269837C
:100700007A838B839C832D833E834F83588789E034
:10071000E82EF12CEC0EFD1ECE010196B7010E94D1
:10072000D2048E010F5E1F4FCE010596B8010E94C4
:10073000D2048985823040F08989823028F0C7014F
:10074000B8010E944A0501C081E06896E6E00C9479
:100750008422ACE0B0E0EFEAF3E00C946C22698311
:100760007A838B839C83CE010196BE016B5F7F4FA2
:100770000E94D2048D81823061F1823050F1843048
:1007800021F48E81882351F12EC02F81388537FDC9
:1007900020C06E812F3131051CF06623F9F023C093
:1007A0008EE190E0821B930B29853A854B855C8511
:1007B00004C056954795379527958A95D2F76623B5
:1007C000B1F050954095309521953F4F4F4F5F4F79
:1007D0000EC020E030E040E050E009C02FEF3FEFD6
:1007E0004FEF5FE704C020E030E040E050E8B9019F
:1007F000CA012C96E2E00C948822DF92EF92FF92DD
:100800000F931F93FC01E480F58006811781D1804E
:100810008081823048F480E090E0A0E1B0E0E82AF6
:10082000F92A0A2B1B2BA5C0843009F49FC0823003
:1008300021F4EE24FF24870105C0E114F104010531
:10084000110519F4E0E0F0E096C0628173819FEF3A
:10085000623879070CF05BC022E83FEF261B370BAC
:100860002A3131052CF020E030E040E050E02AC091
:10087000B801A701022E04C0769567955795479554
:100880000A94D2F781E090E0A0E0B0E004C0880FC5
:10089000991FAA1FBB1F2A95D2F70197A109B10979
:1008A0008E219F21A023B1230097A105B10521F03E
:1008B00081E090E0A0E0B0E09A01AB01282B392B59
:1008C0004A2B5B2BDA01C9018F779070A070B07052
:1008D00080349105A105B10539F427FF09C0205CDA
:1008E0003F4F4F4F5F4F04C0215C3F4F4F4F5F4F13
:1008F000E0E0F0E02030A0E03A07A0E04A07A0E402
:100900005A0710F0E1E0F0E079018A0127C0603871
:10091000710564F5FB01E158FF4FD801C7018F77DE
:100920009070A070B07080349105A105B10539F4C4
:10093000E7FE0DC080E490E0A0E0B0E004C08FE3EB
:1009400090E0A0E0B0E0E80EF91E0A1F1B1F17FFA1
:1009500005C016950795F794E794319687E01695AC
:100960000795F794E7948A95D1F705C0EE24FF2404
:100970008701EFEFF0E06E2F679566276795902F60
:100980009F77D794DD24D7948E2F8695492F462BB9
:10099000582F5D29B701CA011F910F91FF90EF9069
:1009A000DF900895FC01DB01408151812281622F9B
:1009B0006F7770E0221F2227221F9381892F880FD3
:1009C000822B282F30E0991F9927991F11969C930D
:1009D000119721153105A9F54115510561057105DD
:1009E00011F482E037C082E89FEF13969C938E93B8
:1009F00012979A01AB0167E0220F331F441F551F66
:100A00006A95D1F783E08C930DC0220F331F441FEA
:100A1000551F12968D919C911397019713969C9355
:100A20008E931297203080E0380780E0480780E4FA
:100A3000580758F314962D933D934D935C93179755
:100A400008952F3F310579F4411551056105710570
:100A500019F484E08C93089564FF03C081E08C93C3
:100A600012C01C9210C02F57304013963C932E9307
:100A7000129783E08C9387E0440F551F661F771F02
:100A80008A95D1F7706414964D935D936D937C9322
:100A9000179708951F93DC01FB019C91923008F495
:100AA00047C08081823008F443C0943051F41196DD
:100AB0001C91843099F58181682F70E0611B710968
:100AC0003FC0843021F0923031F48230B9F181811D
:100AD000882389F12DC011961C9111978230F1F075
:100AE00081811817D9F412962D913C911397828128
:100AF00093818217930794F028173907BCF0149656
:100B00008D919D910D90BC91A02D248135814681C0
:100B10005781281739074A075B0718F4112341F05A
:100B20000AC082179307A407B50740F4112319F0F0
:100B300061E070E005C06FEF7FEF02C060E070E041
:100B4000CB011F910895DF93CF93CDB7DEB72D97DB
:100B50000FB6F894DEBF0FBECDBF89836A834B8387
:100B60008981843008F009C18A81883008F005C184
:100B70008B81823008F001C18981282F30E03D87C8
:100B80002C878C859D858130910509F44FC02C857B
:100B90003D85223031052CF48C859D85009771F0C0
:100BA000ECC02C853D852230310509F477C08C8559
:100BB0009D858330910509F4A9C0DFC08B81282F62
:100BC00030E03B872A878A859B85009731F02A850C
:100BD0003B8521303105B1F0D0C0AAE3B0E0EAE3B3
:100BE000F0E08081482F8A81282F30E081E090E07A
:100BF000022E02C0880F991F0A94E2F78095842381
:100C00008C93BBC0AAE3B0E0EAE3F0E08081482F18
:100C10008A81282F30E081E090E0022E02C0880F08
:100C2000991F0A94E2F7842B8C93A7C08B81282FFD
:100C300030E03987288788859985009731F02885A5
:100C4000398521303105B1F098C0A7E3B0E0E7E382
:100C5000F0E08081482F8A81282F30E081E090E009
:100C6000022E02C0880F991F0A94E2F78095842310
:100C70008C9383C0A7E3B0E0E7E3F0E08081482FE6
:100C80008A81282F30E081E090E0022E02C0880F98
:100C9000991F0A94E2F7842B8C936FC08B81282FC5
:100CA00030E03F832E838E819F81009731F02E812B
:100CB0003F8121303105B1F060C0A4E3B0E0E4E34E
:100CC000F0E08081482F8A81282F30E081E090E099
:100CD000022E02C0880F991F0A94E2F780958423A0
:100CE0008C934BC0A4E3B0E0E4E3F0E08081482FB4
:100CF0008A81282F30E081E090E0022E02C0880F28
:100D0000991F0A94E2F7842B8C9337C08B81282F8C
:100D100030E03D832C838C819D81009731F02C81C4
:100D20003D8121303105B1F028C0A1E3B0E0E1E31D
:100D3000F0E08081482F8A81282F30E081E090E028
:100D4000022E02C0880F991F0A94E2F7809584232F
:100D50008C9313C0A1E3B0E0E1E3F0E08081482F81
:100D60008A81282F30E081E090E0022E02C0880FB7
:100D7000991F0A94E2F7842B8C932D960FB6F89462
:100D8000DEBF0FBECDBFCF91DF910895DF93CF932C
:100D9000CDB7DEB72D970FB6F894DEBF0FBECDBF2F
:100DA00089836A834B838981843008F009C18A81F1
:100DB000883008F005C18B81823008F001C189813B
:100DC000282F30E03D872C878C859D8581309105CB
:100DD00009F44FC02C853D85223031052CF48C85DB
:100DE0009D85009771F0ECC02C853D852230310542
:100DF00009F477C08C859D858330910509F4A9C0DD
:100E0000DFC08B81282F30E03B872A878A859B852E
:100E1000009731F02A853B8521303105B1F0D0C0F3
:100E2000ABE3B0E0EBE3F0E08081482F8A81282F2C
:100E300030E081E090E0022E02C0880F991F0A94F2
:100E4000E2F7809584238C93BBC0ABE3B0E0EBE387
:100E5000F0E08081482F8A81282F30E081E090E007
:100E6000022E02C0880F991F0A94E2F7842B8C93FC
:100E7000A7C08B81282F30E03987288788859985FE
:100E8000009731F02885398521303105B1F098C0BF
:100E9000A8E3B0E0E8E3F0E08081482F8A81282FC2
:100EA00030E081E090E0022E02C0880F991F0A9482
:100EB000E2F7809584238C9383C0A8E3B0E0E8E355
:100EC000F0E08081482F8A81282F30E081E090E097
:100ED000022E02C0880F991F0A94E2F7842B8C938C
:100EE0006FC08B81282F30E03F832E838E819F81BE
:100EF000009731F02E813F8121303105B1F060C083
:100F0000A5E3B0E0E5E3F0E08081482F8A81282F57
:100F100030E081E090E0022E02C0880F991F0A9411
:100F2000E2F7809584238C934BC0A5E3B0E0E5E322
:100F3000F0E08081482F8A81282F30E081E090E026
:100F4000022E02C0880F991F0A94E2F7842B8C931B
:100F500037C08B81282F30E03D832C838C819D818D
:100F6000009731F02C813D8121303105B1F028C04E
:100F7000A2E3B0E0E2E3F0E08081482F8A81282FED
:100F800030E081E090E0022E02C0880F991F0A94A1
:100F9000E2F7809584238C9313C0A2E3B0E0E2E3F0
:100FA000F0E08081482F8A81282F30E081E090E0B6
:100FB000022E02C0880F991F0A94E2F7842B8C93AB
:100FC0002D960FB6F894DEBF0FBECDBFCF91DF9147
:100FD0000895DF93CF9300D000D00F92CDB7DEB746
:100FE0008A836B838A81843008F06BC08B81883060
:100FF00008F067C08A81282F30E03D832C834C8124
:101000005D814130510541F18C819D818230910596
:1010100034F42C813D812115310561F052C04C81A1
:101020005D814230510551F18C819D818330910564
:10103000B9F147C0E9E3F0E08081282F30E08B81EF
:10104000882F90E0A90102C0559547958A95E2F74F
:10105000CA018170898335C0E6E3F0E08081282FE2
:1010600030E08B81882F90E0A90102C0559547950B
:101070008A95E2F7CA018170898323C0E3E3F0E037
:101080008081282F30E08B81882F90E0A90102C059
:10109000559547958A95E2F7CA018170898311C0F9
:1010A000E0E3F0E08081282F30E08B81882F90E012
:1010B000A90102C0559547958A95E2F7CA0181704A
:1010C000898389810F900F900F900F900F90CF918F
:1010D000DF910895DF93CF9300D000D0CDB7DEB776
:1010E00089836A838981843008F072C08A8188305C
:1010F00008F06EC08981282F30E03C832B838B81E0
:101100009C818130910549F12B813C812230310550
:101110002CF48B819C81009761F05AC02B813C811B
:101120002230310571F18B819C8183309105E9F189
:101130004FC0ABE3B0E0EBE3F0E08081482F8A8161
:10114000282F30E081E090E0022E02C0880F991F26
:101150000A94E2F784278C933BC0A8E3B0E0E8E36D
:10116000F0E08081482F8A81282F30E081E090E0F4
:10117000022E02C0880F991F0A94E2F784278C93ED
:1011800027C0A5E3B0E0E5E3F0E08081482F8A8145
:10119000282F30E081E090E0022E02C0880F991FD6
:1011A0000A94E2F784278C9313C0A2E3B0E0E2E351
:1011B000F0E08081482F8A81282F30E081E090E0A4
:1011C000022E02C0880F991F0A94E2F784278C939D
:1011D0000F900F900F900F90CF91DF910895DF93B4
:1011E000CF9300D000D0CDB7DEB789836A838981E1
:1011F000843090F58981282F30E03C832B838B81CC
:101200009C8181309105D1F02B813C8122303105C8
:101210002CF48B819C81009761F01EC02B813C8156
:101220002230310581F08B819C818330910581F0E2
:1012300013C0EAE3F0E08A8180830EC0E7E3F0E0C8
:101240008A81808309C0E4E3F0E08A81808304C05E
:10125000E1E3F0E08A8180830F900F900F900F9070
:10126000CF91DF910895DF93CF9300D000D0CDB719
:10127000DEB789836A838981843090F58981282F3C
:1012800030E03C832B838B819C8181309105D1F0B0
:101290002B813C81223031052CF48B819C8100977D
:1012A00061F01EC02B813C812230310581F08B81A1
:1012B0009C818330910581F013C0EBE3F0E08A81DB
:1012C00080830EC0E8E3F0E08A81808309C0E5E313
:1012D000F0E08A81808304C0E2E3F0E08A818083C9
:1012E0000F900F900F900F90CF91DF910895DF93A3
:1012F000CF93CDB7DEB7EAE3F0E087E08083E7E3A2
:10130000F0E01082E4E3F0E087E08083E1E3F0E0E6
:101310008FEF8083EBE3F0E01082E8E3F0E01082EF
:10132000E5E3F0E01082E2E3F0E084E08083CF9137
:10133000DF910895DF93CF93CDB7DEB7AFE5B0E08F
:10134000EFE5F0E0808180688C93CF91DF91089584
:10135000DF93CF93CDB7DEB7AFE5B0E0EFE5F0E0D8
:1013600080818F778C93CF91DF910895DF93CF9316
:10137000CDB7DEB72F970FB6F894DEBF0FBECDBF47
:101380008F8782E060E040E00E94C60682E061E074
:1013900040E00E94C60683E06F850E94330982E028
:1013A00062E041E00E94C60680E090E0A0E0B0E488
:1013B0008B879C87AD87BE876B857C858D859E8559
:1013C00020E030E04AEF54E40E941F02DC01CB0130
:1013D0008F839887A987BA876F81788589859A8551
:1013E00020E030E040E85FE30E94790388232CF49A
:1013F00081E090E09E838D833FC06F8178858985F1
:101400009A8520E03FEF4FE757E40E941903181632
:101410004CF56B857C858D859E8520E030E040E233
:1014200051E40E941F02DC01CB01BC01CD010E94EE
:101430004900DC01CB019E838D830FC088EC90E0D6
:101440009C838B838B819C810197F1F79C838B8399
:101450008D819E8101979E838D838D819E810097D2
:1014600069F714C06F81788589859A850E94490043
:10147000DC01CB019E838D838D819E819A8389833C
:1014800089819A810197F1F79A83898382E062E0EA
:1014900040E00E94C6062F960FB6F894DEBF0FBE3E
:1014A000CDBFCF91DF910895DF93CF93CDB7DEB756
:1014B0002F970FB6F894DEBF0FBECDBF8F8782E0A7
:1014C00060E041E00E94C60682E061E040E00E94E8
:1014D000C60683E06F850E94330982E062E041E046
:1014E0000E94C60680E090E0A0E0B0E48B879C8775
:1014F000AD87BE876B857C858D859E8520E030E03D
:101500004AEF54E40E941F02DC01CB018F839887CD
:10151000A987BA876F81788589859A8520E030E030
:1015200040E85FE30E94790388232CF481E090E097
:101530009E838D833FC06F81788589859A8520E061
:101540003FEF4FE757E40E94190318164CF56B85DF
:101550007C858D859E8520E030E040E251E40E944C
:101560001F02DC01CB01BC01CD010E944900DC015E
:10157000CB019E838D830FC088EC90E09C838B838E
:101580008B819C810197F1F79C838B838D819E8158
:1015900001979E838D838D819E81009769F714C08A
:1015A0006F81788589859A850E944900DC01CB018D
:1015B0009E838D838D819E819A83898389819A817F
:1015C0000197F1F79A83898382E062E040E00E940C
:1015D000C6062F960FB6F894DEBF0FBECDBFCF91D3
:1015E000DF9108950F931F93DF93CF93CDB7DEB7AD
:1015F000C654D0400FB6F894DEBF0FBECDBFFE017B
:10160000ED5BFF4F80E090E0A0EFB1E48083918339
:10161000A283B3838E01015C1F4FFE01ED5BFF4F80
:10162000608171818281938120E030E04AEF54E44F
:101630000E941F02DC01CB01F80180839183A28309
:10164000B383FE01FF96608171818281938120E0E6
:1016500030E040E85FE30E94790388232CF481E0C6
:1016600090E09EAF8DAF46C0FE01FF966081718114
:101670008281938120E03FEF4FE757E40E941903F6
:10168000181664F5FE01ED5BFF4F60817181828168
:10169000938120E030E040E251E40E941F02DC012F
:1016A000CB01BC01CD010E944900DC01CB019EAF02
:1016B0008DAF0FC088EC90E09CAF8BAF8BAD9CAD35
:1016C0000197F1F79CAF8BAF8DAD9EAD01979EAFAB
:1016D0008DAF8DAD9EAD009769F716C0FE01FF96E8
:1016E00060817181828193810E944900DC01CB017C
:1016F0009EAF8DAF8DAD9EAD9AAF89AF89AD9AADDE
:101700000197F1F79AAF89AF88E30E94B60980E0AC
:1017100090E0A0E8BFE38DAB9EABAFABB8AF6DA9D7
:101720007EA98FA998AD20E030E04AEF54E40E94F2
:101730001F02DC01CB0189AB9AABABABBCAB69A997
:101740007AA98BA99CA920E030E040E85FE30E94E1
:10175000790388232CF481E090E098AB8FA73FC0F9
:1017600069A97AA98BA99CA920E03FEF4FE757E42C
:101770000E94190318164CF56DA97EA98FA998AD82
:1017800020E030E040E251E40E941F02DC01CB0186
:10179000BC01CD010E944900DC01CB0198AB8FA7B1
:1017A0000FC088EC90E09EA78DA78DA59EA5019700
:1017B000F1F79EA78DA78FA598A9019798AB8FA742
:1017C0008FA598A9009769F714C069A97AA98BA970
:1017D0009CA90E944900DC01CB0198AB8FA78FA583
:1017E00098A99CA78BA78BA59CA50197F1F79CA70F
:1017F0008BA78FE00E94B60980E090E0A0E8BFE3ED
:101800008FA398A7A9A7BAA76FA178A589A59AA51C
:1018100020E030E04AEF54E40E941F02DC01CB01DB
:101820008BA39CA3ADA3BEA36BA17CA18DA19EA104
:1018300020E030E040E85FE30E94790388232CF445
:1018400081E090E09AA389A33FC06BA17CA18DA108
:101850009EA120E03FEF4FE757E40E9419031816BE
:101860004CF56FA178A589A59AA520E030E040E26B
:1018700051E40E941F02DC01CB01BC01CD010E949A
:101880004900DC01CB019AA389A30FC088EC90E04A
:1018900098A38F8F8F8D98A10197F1F798A38F8FC1
:1018A00089A19AA101979AA389A389A19AA10097D6
:1018B00069F714C06BA17CA18DA19EA10E94490073
:1018C000DC01CB019AA389A389A19AA19E8F8D8F58
:1018D0008D8D9E8D0197F1F79E8F8D8F81E00E94F7
:1018E000B60980E090E0A0E0B0E4898F9A8FAB8FDA
:1018F000BC8F698D7A8D8B8D9C8D20E030E04AEF16
:1019000054E40E941F02DC01CB018D8B9E8BAF8BB8
:10191000B88F6D897E898F89988D20E030E040E80E
:101920005FE30E94790388232CF481E090E09C8B94
:101930008B8B3FC06D897E898F89988D20E03FEF2A
:101940004FE757E40E94190318164CF5698D7A8DFC
:101950008B8D9C8D20E030E040E251E40E941F021C
:10196000DC01CB01BC01CD010E944900DC01CB01AF
:101970009C8B8B8B0FC088EC90E09A8B898B89892C
:101980009A890197F1F79A8B898B8B899C890197AA
:101990009C8B8B8B8B899C89009769F714C06D8910
:1019A0007E898F89988D0E944900DC01CB019C8B38
:1019B0008B8B8B899C89988B8F878F8598890197D2
:1019C000F1F7988B8F8786E00E94B60980E090E05F
:1019D000A0E8BFE38B879C87AD87BE876B857C853E
:1019E0008D859E8520E030E04AEF54E40E941F027E
:1019F000DC01CB018F839887A987BA876F817885AF
:101A000089859A8520E030E040E85FE30E94790311
:101A100088232CF481E090E09E838D833FC06F810A
:101A2000788589859A8520E03FEF4FE757E40E944B
:101A3000190318164CF56B857C858D859E8520E0F5
:101A400030E040E251E40E941F02DC01CB01BC0106
:101A5000CD010E944900DC01CB019E838D830FC024
:101A600088EC90E09C838B838B819C810197F1F7BC
:101A70009C838B838D819E8101979E838D838D8135
:101A80009E81009769F714C06F81788589859A8552
:101A90000E944900DC01CB019E838D838D819E8154
:101AA0009A83898389819A810197F1F79A8389833F
:101AB000CA5BDF4F0FB6F894DEBF0FBECDBFCF912C
:101AC000DF911F910F910895DF93CF9300D0CDB791
:101AD000DEB79A8389830BC0E981FA8120818981ED
:101AE0009A8101969A838983822F0E94540AE98100
:101AF000FA818081882381F70F900F90CF91DF9139
:101B00000895EF92FF920F931F93DF93CF93CDB77A
:101B1000DEB728970FB6F894DEBF0FBECDBF6D833A
:101B20007E838F83988781E090E0A0E0B0E0898396
:101B30009A83AB83BC838D819E81AF81B8850097EA
:101B4000A105B105D1F580E30E94540A6BC08981DB
:101B50009A81AB81BC812AE030E040E050E0BC01DA
:101B6000CD010E941B227B018C018D819E81AF8162
:101B7000B8852AE030E040E050E0BC01CD010E9491
:101B80003A22DC01CB018E0D9F1DA01FB11F89835E
:101B90009A83AB83BC838D819E81AF81B8852AE017
:101BA00030E040E050E0BC01CD010E943A22DA0171
:101BB000C9018D839E83AF83B8878D819E81AF815C
:101BC000B8850097A105B10511F623C089819A81D6
:101BD000AB81BC812AE030E040E050E0BC01CD01A7
:101BE0000E943A22DC01CB01805D0E94540A898167
:101BF0009A81AB81BC812AE030E040E050E0BC013A
:101C0000CD010E943A22DA01C90189839A83AB830C
:101C1000BC8389819A81AB81BC8181309105A1050A
:101C2000B105A1F628960FB6F894DEBF0FBECDBF62
:101C3000CF91DF911F910F91FF90EF900895DF9367
:101C4000CF9300D0CDB7DEB789836A8389816A815B
:101C500041E00E94C6060F900F90CF91DF9108954A
:101C6000DF93CF9300D0CDB7DEB789836A838981B4
:101C70006A8140E00E94C6060F900F90CF91DF91DD
:101C80000895DF93CF9300D0CDB7DEB789836A8301
:101C900089816A810E946A080F900F90CF91DF912D
:101CA0000895AF92BF92CF92DF92EF92FF920F937F
:101CB000DF93CF93CDB7DEB70E9477090E949A09D0
:101CC0000E94F20A8EE29FE060E070E048EC50E093
:101CD00020E030E004E0EE24FF24CC24DD24AA241C
:101CE000BB240E94301B8EE39FE060E070E048EC74
:101CF00050E020E030E003E0EE24FF24CC24DD249B
:101D0000AA24BB240E94301B8EE49FE060E070E0B8
:101D100048EC50E020E030E002E0EE24FF24CC2448
:101D2000DD24AA24BB240E94301B8EED9EE060E0DF
:101D300070E048EC50E020E030E002E0EE24FF24C8
:101D4000CC24DD24AA24BB240E94301B86E09FE023
:101D500060E070E048EC50E020E030E002E0EE248B
:101D6000FF24CC24DD24AA24BB240E94301B81E064
:101D700060E00E94AF169093F6068093F50680917E
:101D8000F5069091F606009759F08091F50690912E
:101D9000F60660E070E040E050E020E00E94581756
:101DA0000E94291D80E090E0CF91DF910F91FF907C
:101DB000EF90DF90CF90BF90AF900895DF93CF93D7
:101DC00000D0CDB7DEB79A8389838091F5069091D4
:101DD000F60660E070E04FEF5FEF20E00E944318EE
:101DE000813079F480E690E00E94640D8091F506E0
:101DF0009091F60660E070E040E050E020E00E9444
:101E0000581788EE93E00E94F41CDFCFDF93CF9346
:101E100000D0CDB7DEB79A8389838091F506909183
:101E2000F60660E070E04FEF5FEF20E00E9443189D
:101E3000813079F485E690E00E94640D8091F5068A
:101E40009091F60660E070E040E050E020E00E94F3
:101E5000581788EE93E00E94F41CDFCFDF93CF93F6
:101E600000D0CDB7DEB79A83898380E060E00E941E
:101E7000410E88EE93E00E94F41CF7CFDF93CF93DE
:101E800000D0CDB7DEB79A83898380E061E00E94FD
:101E9000410E80ED97E00E94F41CF7CFDF93CF93C3
:101EA00000D0CDB7DEB79A83898380E062E00E94DC
:101EB000410E88E893E10E94F41CF7CFDF93CF93A3
:101EC000CDB7DEB727970FB6F894DEBF0FBECDBFF4
:101ED0009D838C836E834F838AE190E00E9436124B
:101EE0009A83898389819A81009709F46FC08091D0
:101EF0007A0090917B00009741F489819A819093B8
:101F00007B0080937A000E94C5118E81823010F090
:101F100081E08E83E981FA81118E108EE981FA8148
:101F20008E81868BE981FA818F81878BE981FA81A5
:101F30008C819D819183808389819A8102960E9400
:101F4000CC1289819A810C960E94CC12E981FA8187
:101F500089819A8191878087E981FA8189819A8133
:101F6000938B828B8E81282F30E085E090E0821B5E
:101F7000930BE981FA8195878487E981FA819689B3
:101F800080917C00891728F4E981FA818689809301
:101F90007C00E981FA818689282F30E0C901880F09
:101FA000991F880F991F880F991F820F931FAC01EB
:101FB0004D575F4F89819A819C012E5F3F4FCA0127
:101FC000B9010E94DC1281E08B8302C08FEF8B830A
:101FD0008B8127960FB6F894DEBF0FBECDBFCF9191
:101FE000DF910895DF93CF9300D000D000D0CDB71C
:101FF000DEB79C838B837E836D8320917D0030913F
:102000007E008B819C81820F931F9A8389838091AC
:102010007A0090917B0002960E949413E0917A00DE
:10202000F0917B0089819A819383828320917D0046
:1020300030917E0089819A818217930770F4809194
:10204000A9009091AA0020917A0030917B002E5F28
:102050003F4FB9010E9428130DC08091A7009091B5
:10206000A80020917A0030917B002E5F3F4FB9018C
:102070000E9428138D819E81009761F080917A00E3
:1020800090917B009C01245F3F4F8D819E81B9011F
:102090000E94281326960FB6F894DEBF0FBECDBF60
:1020A000CF91DF910895DF93CF9300D0CDB7DEB706
:1020B0003AC0F894E091B000F091B1008681978128
:1020C0009A83898389819A810C960E9494137894CB
:1020D00089819A8102960E949413E981FA819689F6
:1020E00080917C00891728F4E981FA8186898093A0
:1020F0007C00E981FA818689282F30E0C901880FA8
:10210000991F880F991F880F991F820F931FAC0189
:102110004D575F4F89819A819C012E5F3F4FCA01C5
:10212000B9010E94DC128091AB00882309F0C1CF75
:102130000F900F90CF91DF910895DF93CF9300D050
:1021400000D0CDB7DEB70E94021E20917F003091F3
:102150008000821B930B909382008093810085C046
:1021600080917D0090917E00019690937E008093F7
:102170007D00809181009091820001979093820070
:102180008093810080917D0090917E00009709F0FE
:1021900064C08091A7009091A8009A838983809160
:1021A000A9009091AA009093A8008093A70089812C
:1021B0009A819093AA008093A9004FC0E091A70054
:1021C000F091A8000580F681E02D868197819C839F
:1021D0008B83EB81FC812281338180917D00909102
:1021E0007E008217930708F440C0F8948B819C818D
:1021F00002960E949413EB81FC8184899589009753
:1022000029F08B819C810C960E9494137894EB8129
:10221000FC81968980917C00891728F4EB81FC81F0
:10222000868980937C00EB81FC818689282F30E0B1
:10223000C901880F991F880F991F880F991F820F56
:10224000931FAC014D575F4F8B819C819C012E5F8A
:102250003F4FCA01B9010E94DC12E091A700F09142
:10226000A8008081882309F0A9CF809181009091F6
:102270008200009709F074CF80917D0090917E00DC
:102280009093800080937F000F900F900F900F909D
:10229000CF91DF910895DF93CF9300D0CDB7DEB714
:1022A0000E9453100E949D100AC080917C008823D8
:1022B00009F466C080917C00815080937C008091FD
:1022C0007C00282F30E0C901880F991F880F991FC3
:1022D000880F991F820F931FFC01ED57FF4F8081DC
:1022E000882319F380917C00282F30E0C901880FE2
:1022F000991F880F991F880F991F820F931F8D5761
:102300009F4F9A838983E981FA810180F281E02DD0
:1023100082819381E981FA8192838183E981FA81C3
:102320002181328189819A8103962817390759F4CE
:10233000E981FA810180F281E02D82819381E98136
:10234000FA8192838183E981FA810180F281E02D13
:102350008681978190937B0080937A00E0917A0048
:10236000F0917B004081518180917A0090917B00B7
:10237000E0917A00F0917B002789622FFA0109959C
:102380000F900F90CF91DF910895DF93CF930F922D
:10239000CDB7DEB7198213C08981282F30E0C9017B
:1023A000880F991F880F991F880F991F820F931FFD
:1023B0008D579F4F0E94A21289818F5F89838981E7
:1023C000823050F385E990E00E94A2128EE990E0FD
:1023D0000E94A2128BEA90E00E94A21285E990E08E
:1023E0009093A8008093A7008EE990E09093AA00B4
:1023F0008093A9000F90CF91DF910895DF93CF9341
:1024000000D000D00F92CDB7DEB79D838C83EC81D6
:10241000FD810580F681E02D868197819B838A83EB
:102420008A819B810C960E9494138A819B819C01D6
:10243000245F3F4F8BEA90E0B9010E94DC12EA81F1
:10244000FB819689E0917A00F0917B00868998174C
:1024500018F081E0898301C0198289810F900F9063
:102460000F900F900F90CF91DF910895DF93CF934E
:1024700000D000D0CDB7DEB79C838B831A8219823F
:102480000E946C1D8091B4009091B5002B813C811D
:10249000820F931F25E08C3D920718F52091B40020
:1024A0003091B5008B819C81280F391F8091B40039
:1024B0009091B50082179307A0F48091B400909199
:1024C000B5008A549F4F9A8389832091B40030913C
:1024D000B5008B819C81820F931F9093B5008093F0
:1024E000B4000E94781D89819A810F900F900F90FF
:1024F0000F90CF91DF910895DF93CF9300D0CDB7A8
:10250000DEB79A8389830F900F90CF91DF91089562
:10251000DF93CF93CDB7DEB71092B5001092B40021
:10252000CF91DF910895DF93CF93CDB7DEB72091A0
:10253000B4003091B5008CED95E0821B930BCF91E8
:10254000DF910895DF93CF9300D0CDB7DEB79A83A4
:10255000898389819A810396E981FA8192838183B3
:10256000E981FA818FEF9FEF9483838389819A8138
:102570000396E981FA819683858389819A810396FE
:10258000E981FA8190878783E981FA8110820F902F
:102590000F90CF91DF910895DF93CF9300D0CDB707
:1025A000DEB79A838983E981FA81118610860F90BC
:1025B0000F90CF91DF910895DF93CF9300D000D09B
:1025C00000D0CDB7DEB79C838B837E836D83EB8198
:1025D000FC81818192819A838983E981FA81828158
:1025E0009381ED81FE8193838283EB81FC818181E4
:1025F0009281ED81FE8195838483E981FA81028055
:10260000F381E02D8D819E81958384838D819E81D0
:10261000E981FA81938382838D819E81EB81FC81A4
:1026200092838183ED81FE818B819C81918780875C
:10263000EB81FC8180818F5FEB81FC81808326961A
:102640000FB6F894DEBF0FBECDBFCF91DF910895D6
:10265000DF93CF93CDB7DEB728970FB6F894DEBFE0
:102660000FBECDBF9E838D8378876F83EF81F88502
:10267000808191819A83898389819A812FEF8F3F0D
:10268000920739F4ED81FE81878190859C838B834D
:1026900018C08D819E8103969C838B8306C0EB813D
:1026A000FC81828193819C838B83EB81FC810280FE
:1026B000F381E02D2081318189819A8182179307EE
:1026C00070F7EB81FC8182819381EF81F8859383A0
:1026D0008283EF81F8850280F381E02D8F819885D8
:1026E00095838483EF81F8858B819C819583848396
:1026F0008F819885EB81FC8193838283EF81F885BC
:102700008D819E8191878087ED81FE8180818F5FA1
:10271000ED81FE81808328960FB6F894DEBF0FBE50
:10272000CDBFCF91DF910895DF93CF9300D000D03C
:10273000CDB7DEB79C838B83EB81FC81A281B38113
:10274000EB81FC818481958115969C938E931497DF
:10275000EB81FC81A481B581EB81FC818281938135
:1027600013969C938E931297EB81FC8180859185C3
:102770009A838983E981FA81218132818B819C81CD
:102780002817390741F4EB81FC8184819581E98127
:10279000FA8192838183EB81FC8111861086E98125
:1027A000FA8180818150E981FA8180830F900F90B6
:1027B0000F900F90CF91DF910895DF93CF93CDB716
:1027C000DEB728970FB6F894DEBF0FBECDBF9C834F
:1027D0008B837E836D8358874F83EB81FC8181E1FE
:1027E00080838B819C8101979C838B83EB81FC810F
:1027F00082E280838B819C8101979C838B83EB8118
:10280000FC8183E380838B819C8101979C838B83F4
:102810008D819E819A8389838981EB81FC8180836C
:102820008B819C8101979C838B8389819A81892FDD
:1028300099279A8389838981EB81FC8180838B81AD
:102840009C8101979C838B83EB81FC8110828B811F
:102850009C8101979C838B83EB81FC8180E8808342
:102860008B819C8101979C838B83EB81FC811082FF
:102870008B819C8101979C838B83EB81FC8182E01F
:1028800080838B819C8101979C838B83EB81FC816E
:1028900083E080838B819C8101979C838B83EB8178
:1028A000FC8184E080838B819C8101979C838B8356
:1028B000EB81FC8185E080838B819C8101979C83E7
:1028C0008B83EB81FC8186E080838B819C810197E7
:1028D0009C838B83EB81FC8187E080838B819C814F
:1028E00001979C838B83EB81FC8188E080838B81C3
:1028F0009C8101979C838B83EB81FC8189E08083A1
:102900008B819C8101979C838B83EB81FC8180E18F
:1029100080838B819C8101979C838B83EB81FC81DD
:1029200081E180838B819C8101979C838B83EB81E8
:10293000FC8182E180838B819C8101979C838B83C6
:10294000EB81FC8183E180838B819C8101979C8357
:102950008B83EB81FC8184E180838B819C81019757
:102960009C838B83EB81FC8185E180838B819C81BF
:1029700001979C838B83EB81FC8186E180838B8133
:102980009C8101979C838B83EB81FC8187E1808311
:102990008B819C8101979C838B83EB81FC8188E1F7
:1029A00080838B819C8101979C838B83EB81FC814D
:1029B00089E180838B819C8101979C838B83EB8150
:1029C000FC8180E280838B819C8101979C838B8337
:1029D000EB81FC8181E280838B819C8101979C83C8
:1029E0008B83EB81FC8182E280838B819C810197C8
:1029F0009C838B83EB81FC8183E280838B819C8130
:102A000001979C838B838F8198859A8389838981A1
:102A1000EB81FC8180838B819C8101979C838B83DC
:102A200089819A81892F99279A8389838981EB816A
:102A3000FC8180838B819C8101979C838B83EB81BC
:102A4000FC8186E280838B819C8101979C838B83B0
:102A5000EB81FC8187E280838B819C8101979C8341
:102A60008B83EB81FC8188E280838B819C81019741
:102A70009C838B83EB81FC8189E280838B819C81A9
:102A800001979C838B83EB81FC8180E380838B8126
:102A90009C8101979C838B83EB81FC8181E3808304
:102AA0008B819C8101979C838B838B819C81289651
:102AB0000FB6F894DEBF0FBECDBFCF91DF91089562
:102AC000DF93CF93CDB7DEB70E945016A091920648
:102AD000B0919306CD91CDBFDD91DEBFFF91EF9117
:102AE000DF91CF91BF91AF919F918F917F916F9126
:102AF0005F914F913F912F911F910F91FF90EF9018
:102B0000DF90CF90BF90AF909F908F907F906F900D
:102B10005F904F903F902F901F900F900FBE0F909F
:102B2000089581E0CF91DF910895DF93CF93CDB7E2
:102B3000DEB7CF91DF9108950F920FB6F8940F9200
:102B40001F9211242F923F924F925F926F927F9229
:102B50008F929F92AF92BF92CF92DF92EF92FF92AD
:102B60000F931F932F933F934F935F936F937F9395
:102B70008F939F93AF93BF93CF93DF93EF93FF9385
:102B8000A0919206B09193060DB60D920EB60D92DD
:102B90000E940C1FA0919206B0919306CD91CDBFDB
:102BA000DD91DEBFFF91EF91DF91CF91BF91AF91AA
:102BB0009F918F917F916F915F914F913F912F9155
:102BC0001F910F91FF90EF90DF90CF90BF90AF904B
:102BD0009F908F907F906F905F904F903F902F903D
:102BE0001F900F900FBE0F9008950F920FB6F8949C
:102BF0000F921F9211242F923F924F925F926F92E9
:102C00007F928F929F92AF92BF92CF92DF92EF927C
:102C1000FF920F931F932F933F934F935F936F9365
:102C20007F938F939F93AF93BF93CF93DF93EF9354
:102C3000FF93A0919206B09193060DB60D920EB639
:102C40000D920E94371E0E940C1FA0919206B09117
:102C50009306CD91CDBFDD91DEBFFF91EF91DF9166
:102C6000CF91BF91AF919F918F917F916F915F9124
:102C70004F913F912F911F910F91FF90EF90DF9017
:102C8000CF90BF90AF909F908F907F906F905F900C
:102C90004F903F902F901F900F900FBE0F90089570
:102CA000DF93CF9300D000D000D0CDB7DEB780E463
:102CB0009FE1A0E0B0E08B839C83AD83BE838B81DA
:102CC0009C81AD81BE81689415F8B695A7959795BE
:102CD00087951694D1F78B839C83AD83BE838B81BC
:102CE0009C81AD81BE810197A109B1098B839C8331
:102CF000AD83BE838B8189838B819C81AD81BE81B5
:102D0000892F9A2FAB2FBB278B839C83AD83BE83E8
:102D10008B818A83EBE4F0E08A818083EAE4F0E04F
:102D2000898180838BE08983EEE4F0E08981808370
:102D3000E9E5F0E080818983898180618983E9E523
:102D4000F0E08981808326960FB6F894DEBF0FBE2F
:102D5000CDBFCF91DF9108950E94F5151895DF93AF
:102D6000CF93CDB7DEB728970FB6F894DEBF0FBE6E
:102D7000CDBF8F8368871A8219828F81882309F4D7
:102D80008CC08FE190E00E9436129E838D838D81EE
:102D90009E81009709F481C08F81282F30E08885BB
:102DA000882F90E0AC01249FC001259F900D349F97
:102DB000900D112401969C838B838B819C810E94B2
:102DC0003612ED81FE8191838083ED81FE818081C9
:102DD0009181009709F45DC0ED81FE8140815181B0
:102DE0008F81282F30E08885882F90E0BC01269FB6
:102DF000C001279F900D369F900D1124840F951FC1
:102E0000ED81FE8193838283ED81FE81128EED81BF
:102E1000FE8180819181ED81FE8195838483ED81A6
:102E2000FE81408151818F81882F90E09C0121504B
:102E300030408885882F90E0BC01269FC001279FE5
:102E4000900D369F900D1124840F951FED81FE810A
:102E500097838683ED81FE818F81838FED81FE8153
:102E60008885848FED81FE818FEF858FED81FE81D6
:102E70008FEF868F8D819E8108960E94A2128D8190
:102E80009E8141960E94A2128D819E819A838983A0
:102E900004C08D819E810E947C1289819A8128962E
:102EA0000FB6F894DEBF0FBECDBFCF91DF9108956E
:102EB000DF93CF93CDB7DEB72C970FB6F894DEBF74
:102EC0000FBECDBF9E838D8378876F835A874987D6
:102ED0002B8719820FB6F8940F92ED81FE81928DA7
:102EE000ED81FE81838D9817D8F48D819E812F818D
:102EF0003885B9014B850E949319ED81FE81818946
:102F0000882349F08D819E8141960E94A81F8130BF
:102F100011F40E949C150F900FBE81E08C875CC05D
:102F200089859A85009721F40F900FBE1C8654C0A6
:102F30008981882331F4CE0102960E94102081E01D
:102F400089830F900FBE0E946C1D0FB6F8940F92EC
:102F5000ED81FE81858D8F3F19F4ED81FE81158E07
:102F6000ED81FE81868D8F3F19F4ED81FE81168EF5
:102F70000F900FBECE0102969E01275F3F4FB90111
:102F80000E942920882309F58D819E810E94F71ACD
:102F90008823A1F08D819E81089629853A85B90103
:102FA0000E94721F8D819E810E94701A0E94781D5E
:102FB000882309F08FCF0E949C158CCF8D819E8134
:102FC0000E94701A0E94781D85CF8D819E810E947B
:102FD000701A0E94781D1C868C852C960FB6F8946A
:102FE000DEBF0FBECDBFCF91DF910895DF93CF93AA
:102FF000CDB7DEB729970FB6F894DEBF0FBECDBFB1
:103000009C838B837E836D8358874F8329871982A6
:10301000EB81FC81928DEB81FC81838D981740F5CB
:103020008B819C812D813E81B90149850E94931934
:10303000EB81FC81868D8F3F89F4EB81FC81818956
:10304000882399F08B819C8141960E94A81F882338
:1030500061F0EF81F88581E0808307C0EB81FC811E
:10306000868D8F5FEB81FC81868F81E08A8301C032
:103070001A828A8129960FB6F894DEBF0FBECDBFA3
:10308000CF91DF910895DF93CF93CDB7DEB72E9721
:103090000FB6F894DEBF0FBECDBF98878F837A87B7
:1030A00069875C874B872D871B820FB6F8940F9238
:1030B000EF81F885828D882309F43FC0EF81F88580
:1030C000868197819A8389838F81988529853A851E
:1030D000B9010E94281A8D858823B1F4EF81F88503
:1030E000828D8150EF81F885828FEF81F885808510
:1030F0008823F1F08F81988508960E94A81F81305F
:10310000B9F40E949C1514C0EF81F88589819A81D9
:1031100097838683EF81F8858189882349F08F81A1
:10312000988541960E94A81F882311F00E949C1543
:103130000F900FBE81E08E875CC08B859C850097C9
:1031400021F40F900FBE1E8654C08B81882331F46A
:10315000CE0104960E94102081E08B830F900FBE59
:103160000E946C1D0FB6F8940F92EF81F885858D43
:103170008F3F19F4EF81F885158EEF81F885868DE4
:103180008F3F19F4EF81F885168E0F900FBECE0198
:1031900004969E01255F3F4FB9010E942920882394
:1031A00009F58F8198850E94C41A8823A1F08F8128
:1031B000988541962B853C85B9010E94721F8F81AD
:1031C00098850E94701A0E94781D882309F06DCF9F
:1031D0000E949C156ACF8F8198850E94701A0E9468
:1031E000781D63CF8F8198850E94701A0E94781D88
:1031F0001E868E852E960FB6F894DEBF0FBECDBF0D
:10320000CF91DF910895DF93CF93CDB7DEB72897A5
:103210000FB6F894DEBF0FBECDBF9C838B837E8339
:103220006D8358874F831982EB81FC81828D8823BF
:1032300071F18B819C812D813E81B9010E94281AF8
:10324000EB81FC81828D8150EB81FC81828FEB814F
:10325000FC81858D8F3F89F4EB81FC8180858823FB
:1032600099F08B819C8108960E94A81F882361F0A9
:10327000EF81F88581E0808307C0EB81FC81858D3B
:103280008F5FEB81FC81858F81E08A8301C01A8288
:103290008A8128960FB6F894DEBF0FBECDBFCF91BE
:1032A000DF910895DF93CF9300D00F92CDB7DEB7B3
:1032B0009B838A830FB6F8940F92EA81FB81828DFB
:1032C00089830F900FBE89810F900F900F90CF913F
:1032D000DF910895DF93CF9300D00F92CDB7DEB783
:1032E0009B838A83EA81FB81828D898389810F9008
:1032F0000F900F90CF91DF910895DF93CF9300D07F
:10330000CDB7DEB79A838983E981FA818081918183
:103310000E947C1289819A810E947C120F900F90EA
:10332000CF91DF910895DF93CF9300D000D00F921B
:10333000CDB7DEB79A8389837C836B834D83E98124
:10334000FA81848D882309F474C08D81882399F5CE
:10335000E981FA8164817581E981FA81848D482F40
:1033600050E02B813C81CB01B9010E949322E9817D
:10337000FA8124813581E981FA81848D882F90E05A
:10338000820F931FE981FA8195838483E981FA8111
:1033900024813581E981FA81828193812817390757
:1033A00008F447C0E981FA8180819181E981FA813D
:1033B000958384833EC0E981FA8166817781E981C2
:1033C000FA81848D482F50E02B813C81CB01B901DB
:1033D0000E949322E981FA8126813781E981FA816D
:1033E000848D882F90E0909581959F4F820F931F39
:1033F000E981FA8197838683E981FA812681378181
:10340000E981FA81808191812817390790F4E98157
:10341000FA8122813381E981FA81848D882F90E0BD
:10342000909581959F4F820F931FE981FA81978331
:103430008683E981FA81828D8F5FE981FA81828FAB
:103440000F900F900F900F900F90CF91DF910895F4
:10345000DF93CF9300D000D0CDB7DEB79A838983B6
:103460007C836B83E981FA8180819181009789F166
:10347000E981FA8126813781E981FA81848D882F5B
:1034800090E0820F931FE981FA8197838683E98117
:10349000FA8126813781E981FA8182819381281717
:1034A000390740F0E981FA8180819181E981FA81CF
:1034B00097838683E981FA8146815781E981FA8180
:1034C000848D282F30E08B819C81BA01A9010E9454
:1034D00093220F900F900F900F90CF91DF9108954E
:1034E000DF93CF9300D0CDB7DEB79A8389830FB631
:1034F000F8940F9215C0E981FA8181898823A9F097
:1035000089819A8141960E94A81F882311F00E9408
:103510008620E981FA81868D8150E981FA81868F42
:10352000E981FA81868D181634F3E981FA818FEFEB
:10353000868F0F900FBE0FB6F8940F9215C0E981D9
:10354000FA8180858823A9F089819A8108960E9452
:10355000A81F882311F00E948620E981FA81858DB9
:103560008150E981FA81858FE981FA81858D18166C
:1035700034F3E981FA818FEF858F0F900FBE0F90A2
:103580000F90CF91DF910895DF93CF9300D00F92EA
:10359000CDB7DEB79B838A830FB6F8940F92EA818A
:1035A000FB81828D1982882311F481E089830F9039
:1035B0000FBE89810F900F900F90CF91DF910895EA
:1035C000DF93CF9300D00F92CDB7DEB79B838A8372
:1035D000EA81FB81828D1982882311F481E089833D
:1035E00089810F900F900F90CF91DF910895DF9315
:1035F000CF9300D00F92CDB7DEB79B838A830FB6EF
:10360000F8940F92EA81FB81928DEA81FB81838D90
:103610001982981711F481E089830F900FBE898178
:103620000F900F900F90CF91DF910895DF93CF937C
:1036300000D00F92CDB7DEB79B838A83EA81FB81EE
:10364000928DEA81FB81838D1982981711F481E0B4
:10365000898389810F900F900F90CF91DF9108950A
:10366000AF92BF92CF92DF92EF92FF920F931F9390
:10367000DF93CF93CDB7DEB764970FB6F894DEBF74
:103680000FBECDBF9F838E83798768875B874A870C
:103690003D872C870E87F88AEF86DA8AC98ABC8A2A
:1036A000AB8A8A859B8529893A89B9010E94B5210F
:1036B0009C838B838B819C81009709F499C0EB815B
:1036C000FC812789308D8A859B850197820F931F06
:1036D0009A8389838B819C8128853985EB89FC8934
:1036E000AA85BB85B9014E859F018D010E949A2054
:1036F00089819A812E813F814C855D85B9010E9427
:10370000DD13EB81FC81918380838F8598890097FD
:1037100031F0EF85F8898B819C81918380830FB68E
:10372000F8940F92809195068F5F80939506809113
:10373000920690919306009769F48B819C819093F7
:10374000930680939206809195068130A9F40E9499
:10375000F12012C080919A06882371F4E0919206BC
:10376000F091930696898E85891730F08B819C8124
:103770009093930680939206EB81FC8196898091C9
:103780009806891728F4EB81FC8186898093980636
:1037900080919F068F5F80939F06EB81FC819689C5
:1037A00080919906891728F4EB81FC8186898093A2
:1037B0009906EB81FC818689282F30E0C901880FAA
:1037C000991F880F991F880F991F820F931FAC01B3
:1037D0004056594F8B819C819C012E5F3F4FCA01FF
:1037E000B9010E94DC1281E08D830F900FBE02C0F0
:1037F0008FEF8D838D81813071F480919A068823BB
:1038000051F0E0919206F091930696898E85981773
:1038100010F40E949C158D8164960FB6F894DEBF5B
:103820000FBECDBFCF91DF911F910F91FF90EF9011
:10383000DF90CF90BF90AF900895DF93CF9300D0EB
:1038400000D000D0CDB7DEB79C838B830FB6F89441
:103850000F9220919206309193068B819C81821762
:10386000930711F41C821B828B819C81009739F491
:1038700080919206909193069E838D8304C08B81E4
:103880009C819E838D838D819E819A83898389818A
:103890009A8102960E949413E981FA81848995891C
:1038A000009729F089819A810C960E94941389814E
:1038B0009A819C012E5F3F4F8CEE96E0B9010E94E9
:1038C000DC12809194068F5F8093940680919F060E
:1038D0008F5F80939F060F900FBE80919A0688237A
:1038E00031F08B819C81009711F40E949C152696E3
:1038F0000FB6F894DEBF0FBECDBFCF91DF91089514
:10390000DF93CF93CDB7DEB728970FB6F894DEBF1D
:103910000FBECDBF9E838D8378876F8319820E94EF
:103920006C1DED81FE81208131818F819885820F10
:10393000931F9C838B83ED81FE8120813181809157
:1039400096069091970682179307A8F4ED81FE8161
:10395000208131818B819C818217930700F5209112
:103960009606309197068B819C8128173907B8F409
:1039700081E0898314C0ED81FE81208131818B81BA
:103980009C818217930748F0209196063091970604
:103990008B819C812817390710F481E08983ED81A0
:1039A000FE818B819C81918380838981882359F05A
:1039B000809192069091930602960E9494138B81B7
:1039C0009C810E946C210E94781D8A838A818823B1
:1039D00011F40E949C1528960FB6F894DEBF0FBE16
:1039E000CDBFCF91DF910895DF93CF9300D000D06A
:1039F0000F92CDB7DEB79D838C8319828C819D8118
:103A00000097D1F00E946C1D209196063091970688
:103A10008C819D81820F931F9B838A838091920664
:103A20009091930602960E9494138A819B810E9432
:103A30006C210E94781D89838981882311F40E945A
:103A40009C150F900F900F900F900F90CF91DF91DA
:103A50000895AF92BF92CF92DF92EF92FF920F93B1
:103A6000DF93CF930F92CDB7DEB72AE630E080E93F
:103A700090E2B90145E550E020E030E000E0EE24BE
:103A8000FF24CC24DD24AA24BB240E94301B89837C
:103A90008981813051F4F89481E080939A061092E4
:103AA0009706109296060E9460150F90CF91DF91B5
:103AB0000F91FF90EF90DF90CF90BF90AF9008955F
:103AC000DF93CF93CDB7DEB7F89410929A060E9499
:103AD0009515CF91DF910895DF93CF93CDB7DEB7E2
:103AE00080919B068F5F80939B06CF91DF91089515
:103AF000DF93CF9300D000D0CDB7DEB71A820FB6D8
:103B0000F8940F9280919B06815080939B06809140
:103B10009B06882309F06CC080919506882309F4E0
:103B200067C0198241C0E091E806F091E9068681FC
:103B300097819C838B838B819C810C960E9494132C
:103B40008B819C8102960E949413EB81FC81968963
:103B500080919906891728F4EB81FC8186898093EE
:103B60009906EB81FC818689282F30E0C901880FF6
:103B7000991F880F991F880F991F820F931F8056D6
:103B8000994F2B813C812E5F3F4FB9010E94DC127F
:103B9000EB81FC819689E0919206F09193068689EB
:103BA000981710F081E089838091E306882309F05B
:103BB000BACF80919C06882371F007C00E94371EFF
:103BC00080919C06815080939C0680919C0688235E
:103BD000A9F781E089838981813021F080919D0658
:103BE000813031F481E08A8310929D060E949C15F9
:103BF0000F900FBE8A810F900F900F900F90CF9172
:103C0000DF910895DF93CF9300D0CDB7DEB70FB625
:103C1000F8940F9280919606909197069A838983E3
:103C20000F900FBE89819A810F900F90CF91DF91F5
:103C30000895DF93CF9300D00F92CDB7DEB71982EE
:103C400080919606909197069B838A838A819B81B7
:103C50000F900F900F90CF91DF910895DF93CF9346
:103C6000CDB7DEB780919506CF91DF910895DF93B0
:103C7000CF9300D000D000D0CDB7DEB780919B06A7
:103C8000882309F0BBC08091960690919706019613
:103C9000909397068093960680919606909197064A
:103CA0000097D1F58091DF069091E0069C838B838D
:103CB0008091E1069091E2069093E0068093DF0602
:103CC0008B819C819093E2068093E10680919E0611
:103CD0008F5F80939E06E091DF06F091E006808181
:103CE000882339F48FEF9FEF9093780080937700CB
:103CF00013C0E091DF06F091E0060580F681E02D2B
:103D0000868197819E838D83ED81FE81828193815F
:103D100090937800809377002091960630919706D3
:103D200080917700909178002817390708F46BC0CC
:103D3000E091DF06F091E0068081882339F48FEF6F
:103D40009FEF90937800809377005DC0E091DF064D
:103D5000F091E0060580F681E02D868197819E83B3
:103D60008D83ED81FE81828193819A838983209165
:103D700096063091970689819A812817390738F479
:103D800089819A8190937800809377003CC08D81DF
:103D90009E8102960E949413ED81FE81848995890B
:103DA000009729F08D819E810C960E949413ED81DD
:103DB000FE81968980919906891728F4ED81FE810C
:103DC000868980939906ED81FE818689282F30E0CF
:103DD000C901880F991F880F991F880F991F820F9B
:103DE000931FAC014056594F8D819E819C012E5FDF
:103DF0003F4FCA01B9010E94DC129ACF80919C0604
:103E00008F5F80939C0626960FB6F894DEBF0FBE98
:103E1000CDBFCF91DF910895DF93CF9300D0CDB781
:103E2000DEB780919B06882349F081E080939D0650
:103E300054C080919906815080939906809199068B
:103E4000282F30E0C901880F991F880F991F880F0C
:103E5000991F820F931FFC01E056F94F8081882340
:103E600041F380919906282F30E0C901880F991FEE
:103E7000880F991F880F991F820F931F8056994FA3
:103E80009A838983E981FA810180F281E02D828120
:103E90009381E981FA8192838183E981FA81218189
:103EA000328189819A8103962817390759F4E9816B
:103EB000FA810180F281E02D82819381E981FA818A
:103EC00092838183E981FA810180F281E02D8681EC
:103ED000978190939306809392060F900F90CF91C5
:103EE000DF910895DF93CF9300D000D000D0CDB7FD
:103EF000DEB79C838B837E836D834B815C81809155
:103F00009206909193069C01245F3F4FCA01B9012C
:103F10000E942813809192069091930602960E9427
:103F2000941320919606309197068D819E81820F81
:103F3000931F9A83898389819A810E946C21269696
:103F40000FB6F894DEBF0FBECDBFCF91DF910895BD
:103F5000DF93CF9300D000D00F92CDB7DEB79D8313
:103F60008C83EC81FD810580F681E02D868197812F
:103F70009B838A838A819B810C960E9494138091F3
:103F80009B06882361F58A819B8102960E94941387
:103F9000EA81FB81968980919906891728F4EA8144
:103FA000FB81868980939906EA81FB818689282F87
:103FB00030E0C901880F991F880F991F880F991F3A
:103FC000820F931FAC014056594F8A819B819C01FF
:103FD0002E5F3F4FCA01B9010E94DC120AC08A81DC
:103FE0009B819C01245F3F4F83EE96E0B9010E94C4
:103FF000DC12EA81FB819689E0919206F0919306AA
:104000008689981718F081E0898301C01982898117
:104010000F900F900F900F900F90CF91DF91089518
:10402000DF93CF9300D0CDB7DEB79A838983809199
:104030009E06E981FA818083809196069091970689
:10404000E981FA81928381830F900F90CF91DF9164
:104050000895DF93CF9300D000D00F92CDB7DEB795
:104060009B838A837D836C830FB6F8940F92EA81D9
:10407000FB81908180919E06981771F0EA81FB8107
:10408000218132818091960690919706821793073D
:1040900018F081E089832FC0209196063091970611
:1040A000EA81FB8181819281281B390BEC81FD81A2
:1040B0008081918128173907E0F4EC81FD814081EE
:1040C0005181EA81FB812181328180919606909114
:1040D0009706B901681B790BCB01840F951FEC8102
:1040E000FD81918380838A819B810E9410201982A7
:1040F00002C081E089830F900FBE89810F900F90DD
:104100000F900F900F90CF91DF910895DF93CF9391
:10411000CDB7DEB781E080939D06CF91DF91089502
:10412000DF93CF9300D0CDB7DEB79A8389830E9407
:104130002E21FDCF0F931F93DF93CF93CDB7DEB723
:1041400029970FB6F894DEBF0FBECDBF9A8389833F
:104150007C836B834D833F832E83198708878981F6
:104160009A8149962B813C81B90148E050E00E9438
:10417000A322E981FA8110A28D81853010F084E0BC
:104180008D83E981FA818D81868B89819A8102965E
:104190000E94CC1289819A810C960E94CC12E981EE
:1041A000FA8189819A81918780878D81282F30E0DB
:1041B00085E090E0821B930BE981FA8195878487E3
:1041C000E981FA8189819A81938B828B29960FB636
:1041D000F894DEBF0FBECDBFCF91DF911F910F913D
:1041E0000895DF93CF930F92CDB7DEB7198213C036
:1041F0008981282F30E0C901880F991F880F991FE6
:10420000880F991F820F931F8056994F0E94A21208
:1042100089818F5F89838981853050F38DEC96E0A9
:104220000E94A21286ED96E00E94A21283EE96E012
:104230000E94A2128CEE96E00E94A2128DEC96E0F3
:104240009093E0068093DF0686ED96E09093E20679
:104250008093E1060F90CF91DF910895DF93CF9384
:1042600000D00F92CDB7DEB780919406882371F10C
:104270000E946C1D8091EC061B82882311F481E062
:104280008B830E94781D8B81882301F50FB6F894EB
:104290000F92E091F106F091F206868197819A8360
:1042A000898389819A8102960E9494138091950650
:1042B0008150809395068091940681508093940656
:1042C0000F900FBE89819A810E9405220F900F9056
:1042D0000F90CF91DF910895DF93CF9300D0CDB7AA
:1042E000DEB79A838983E0919206F09193068981E3
:1042F0009A819383828320919606309197068981D3
:104300009A818217930770F48091E1069091E206FA
:1043100020919206309193062E5F3F4FB9010E9483
:1043200028131EC04091DF065091E006809192064E
:10433000909193069C012E5F3F4FCA01B9010E94E4
:104340002813209177003091780089819A81821713
:10435000930730F489819A81909378008093770055
:104360000F900F90CF91DF910895DF93CF93CDB74A
:10437000DEB728970FB6F894DEBF0FBECDBF9C8383
:104380008B837E836D8381E290E00E9436129A8354
:10439000898389819A81009769F18D819E81009737
:1043A00039F48B819C810E94361298878F8304C0D8
:1043B0008D819E8198878F83E981FA818F8198858D
:1043C000908F878BE981FA818789908D009739F4E6
:1043D00089819A810E947C121A8219820BC0E9811C
:1043E000FA818789908D2B813C8165EA70E0A90173
:1043F0000E949C2289819A8128960FB6F894DEBF8C
:104400000FBECDBFCF91DF910895DF93CF9300D042
:10441000CDB7DEB79A838983E981FA818789908D48
:104420000E947C1289819A810E947C120F900F90C9
:10443000CF91DF910895629FD001739FF001829F19
:10444000E00DF11D649FE00DF11D929FF00D839F23
:10445000F00D749FF00D659FF00D9927729FB00DC0
:10446000E11DF91F639FB00DE11DF91FBD01CF01D3
:1044700011240895A1E21A2EAA1BBB1BFD010DC039
:10448000AA1FBB1FEE1FFF1FA217B307E407F50704
:1044900020F0A21BB30BE40BF50B661F771F881FE0
:1044A000991F1A9469F760957095809590959B0176
:1044B000AC01BD01CF0108952F923F924F925F92C0
:1044C0006F927F928F929F92AF92BF92CF92DF9224
:1044D000EF92FF920F931F93CF93DF93CDB7DEB789
:1044E000CA1BDB0B0FB6F894DEBF0FBECDBF09941D
:1044F0002A88398848885F846E847D848C849B8474
:10450000AA84B984C884DF80EE80FD800C811B8181
:10451000AA81B981CE0FD11D0FB6F894DEBF0FBEB0
:10452000CDBFED010895FB01DC0102C001900D92A9
:1045300041505040D8F70895DC0101C06D934150BF
:104540005040E0F70895FB01DC014150504048F035
:1045500001900D920020C9F701C01D9241505040BA
:08456000E0F70895F894FFCF85
:104568002054312000205432200049444C4500009A
:0A45780000000000000000FFFF003B
:00000001FF
