:020000020000FC
:100000000FE50DBF08E00EBF00E00ABB0FEF0BBB12
:10001000A09AA89A0E945700A8980E9457000E9490
:100020005700C89BA89AC899A8980E9457000E9498
:100030005700C99BA89AC999A8980E9457000E9486
:100040005700CA9BA89ACA99A8980E9457000E9474
:100050005700CB9BA89ACB99A8980E9457000E9462
:100060005700CC9BA89ACC99A8980E9457000E9450
:100070005700CD9BA89ACD99A8980E9457000E943E
:100080005700CE9BA89ACE99A8980E9457000E942C
:100090005700CF9BA89ACF99A8980E9457000E941A
:1000A0005700A89A0E9457000E945700B2CF0EE056
:0A00B000000000000A95F1F7089522
:00000001FF
