:100000000C942A000C9434000C9434000C943400AA
:100010000C9434000C9434000C9434000C94340090
:100020000C9434000C9434000C9434000C94340080
:100030000C9434000C9434000C9434000C94340070
:100040000C9434000C9434000C9434000C94340060
:100050000C94340011241FBECFE5D8E0DEBFCDBF25
:100060000E9436000C9453040C940000DF93CF934D
:100070000F92CDB7DEB782E061E041E00E94600000
:1000800082E062E041E00E94830182E062E040E0C1
:100090000E946000E3E3F0E08081869586958170A0
:1000A00089838981882331F482E061E041E00E9404
:1000B0008301F0CF82E061E040E00E948301EACF5B
:1000C000DF93CF93CDB7DEB72D970FB6F894DEBF91
:1000D0000FBECDBF89836A834B838981843008F04A
:1000E00009C18A81883008F005C18B81823008F00F
:1000F00001C18981282F30E03D872C878C859D8523
:100100008130910509F44FC02C853D8522303105A1
:100110002CF48C859D85009771F0ECC02C853D8575
:100120002230310509F477C08C859D858330910597
:1001300009F4A9C0DFC08B81282F30E03B872A87D4
:100140008A859B85009731F02A853B8521303105D2
:10015000B1F0D0C0AAE3B0E0EAE3F0E08081482F3C
:100160008A81282F30E081E090E0022E02C0880FC3
:10017000991F0A94E2F7809584238C93BBC0AAE36D
:10018000B0E0EAE3F0E08081482F8A81282F30E058
:1001900081E090E0022E02C0880F991F0A94E2F7D6
:1001A000842B8C93A7C08B81282F30E03987288738
:1001B00088859985009731F028853985213031056A
:1001C000B1F098C0A7E3B0E0E7E3F0E08081482F0A
:1001D0008A81282F30E081E090E0022E02C0880F53
:1001E000991F0A94E2F7809584238C9383C0A7E338
:1001F000B0E0E7E3F0E08081482F8A81282F30E0EB
:1002000081E090E0022E02C0880F991F0A94E2F765
:10021000842B8C936FC08B81282F30E03F832E83FB
:100220008E819F81009731F02E813F8121303105F1
:10023000B1F060C0A4E3B0E0E4E3F0E08081482FD7
:100240008A81282F30E081E090E0022E02C0880FE2
:10025000991F0A94E2F7809584238C934BC0A4E302
:10026000B0E0E4E3F0E08081482F8A81282F30E07D
:1002700081E090E0022E02C0880F991F0A94E2F7F5
:10028000842B8C9337C08B81282F30E03D832C83C7
:100290008C819D81009731F02C813D812130310589
:1002A000B1F028C0A1E3B0E0E1E3F0E08081482FA5
:1002B0008A81282F30E081E090E0022E02C0880F72
:1002C000991F0A94E2F7809584238C9313C0A1E3CD
:1002D000B0E0E1E3F0E08081482F8A81282F30E010
:1002E00081E090E0022E02C0880F991F0A94E2F785
:1002F000842B8C932D960FB6F894DEBF0FBECDBF26
:10030000CF91DF910895DF93CF93CDB7DEB72D97CF
:100310000FB6F894DEBF0FBECDBF89836A834B83CF
:100320008981843008F009C18A81883008F005C1CC
:100330008B81823008F001C18981282F30E03D8710
:100340002C878C859D858130910509F44FC02C85C3
:100350003D85223031052CF48C859D85009771F008
:10036000ECC02C853D852230310509F477C08C85A1
:100370009D858330910509F4A9C0DFC08B81282FAA
:1003800030E03B872A878A859B85009731F02A8554
:100390003B8521303105B1F0D0C0ABE3B0E0EBE3F9
:1003A000F0E08081482F8A81282F30E081E090E0C2
:1003B000022E02C0880F991F0A94E2F780958423C9
:1003C0008C93BBC0ABE3B0E0EBE3F0E08081482F5F
:1003D0008A81282F30E081E090E0022E02C0880F51
:1003E000991F0A94E2F7842B8C93A7C08B81282F46
:1003F00030E03987288788859985009731F02885EE
:10040000398521303105B1F098C0A8E3B0E0E8E3C8
:10041000F0E08081482F8A81282F30E081E090E051
:10042000022E02C0880F991F0A94E2F78095842358
:100430008C9383C0A8E3B0E0E8E3F0E08081482F2C
:100440008A81282F30E081E090E0022E02C0880FE0
:10045000991F0A94E2F7842B8C936FC08B81282F0D
:1004600030E03F832E838E819F81009731F02E8173
:100470003F8121303105B1F060C0A5E3B0E0E5E394
:10048000F0E08081482F8A81282F30E081E090E0E1
:10049000022E02C0880F991F0A94E2F780958423E8
:1004A0008C934BC0A5E3B0E0E5E3F0E08081482FFA
:1004B0008A81282F30E081E090E0022E02C0880F70
:1004C000991F0A94E2F7842B8C9337C08B81282FD5
:1004D00030E03D832C838C819D81009731F02C810D
:1004E0003D8121303105B1F028C0A2E3B0E0E2E364
:1004F000F0E08081482F8A81282F30E081E090E071
:10050000022E02C0880F991F0A94E2F78095842377
:100510008C9313C0A2E3B0E0E2E3F0E08081482FC7
:100520008A81282F30E081E090E0022E02C0880FFF
:10053000991F0A94E2F7842B8C932D960FB6F894AA
:10054000DEBF0FBECDBFCF91DF910895DF93CF9374
:1005500000D000D00F92CDB7DEB78A836B838A813B
:10056000843008F06BC08B81883008F067C08A81C6
:10057000282F30E03D832C834C815D814130510533
:1005800041F18C819D818230910534F42C813D8133
:100590002115310561F052C04C815D814230510519
:1005A00051F18C819D8183309105B9F147C0E9E318
:1005B000F0E08081282F30E08B81882F90E0A90126
:1005C00002C0559547958A95E2F7CA0181708983E3
:1005D00035C0E6E3F0E08081282F30E08B81882F62
:1005E00090E0A90102C0559547958A95E2F7CA01A6
:1005F0008170898323C0E3E3F0E08081282F30E01D
:100600008B81882F90E0A90102C0559547958A9566
:10061000E2F7CA018170898311C0E0E3F0E08081D4
:10062000282F30E08B81882F90E0A90102C05595DA
:1006300047958A95E2F7CA018170898389810F9075
:100640000F900F900F900F90CF91DF910895DF934F
:10065000CF9300D000D0CDB7DEB789836A8389817C
:10066000843008F072C08A81883008F06EC08981B9
:10067000282F30E03C832B838B819C818130910536
:1006800049F12B813C81223031052CF48B819C81F6
:10069000009761F05AC02B813C812230310571F105
:1006A0008B819C8183309105E9F14FC0ABE3B0E0D1
:1006B000EBE3F0E08081482F8A81282F30E081E051
:1006C00090E0022E02C0880F991F0A94E2F7842757
:1006D0008C933BC0A8E3B0E0E8E3F0E08081482FD2
:1006E0008A81282F30E081E090E0022E02C0880F3E
:1006F000991F0A94E2F784278C9327C0A5E3B0E002
:10070000E5E3F0E08081482F8A81282F30E081E006
:1007100090E0022E02C0880F991F0A94E2F7842706
:100720008C9313C0A2E3B0E0E2E3F0E08081482FB5
:100730008A81282F30E081E090E0022E02C0880FED
:10074000991F0A94E2F784278C930F900F900F90D3
:100750000F90CF91DF910895DF93CF9300D000D019
:10076000CDB7DEB789836A838981843090F589812A
:10077000282F30E03C832B838B819C818130910535
:10078000D1F02B813C81223031052CF48B819C816E
:10079000009761F01EC02B813C812230310581F031
:1007A0008B819C818330910581F013C0EAE3F0E0F6
:1007B0008A8180830EC0E7E3F0E08A81808309C0EC
:1007C000E4E3F0E08A81808304C0E1E3F0E08A8121
:1007D00080830F900F900F900F90CF91DF9108952D
:1007E000DF93CF9300D000D0CDB7DEB789836A8383
:1007F0008981843090F58981282F30E03C832B83D8
:100800008B819C8181309105D1F02B813C812230FC
:1008100031052CF48B819C81009761F01EC02B81E7
:100820003C812230310581F08B819C8183309105A0
:1008300081F013C0EBE3F0E08A8180830EC0E8E32F
:10084000F0E08A81808309C0E5E3F0E08A8180835B
:1008500004C0E2E3F0E08A8180830F900F900F9054
:100860000F90CF91DF910895DF93CF93CDB7DEB78F
:10087000EAE3F0E01082E7E3F0E01082E4E3F0E086
:100880001082E1E3F0E01082EBE3F0E01082E8E3B5
:10089000F0E01082E5E3F0E01082E2E3F0E01082A5
:0A08A000CF91DF910895F894FFCF87
:00000001FF
